:100000000C9463000C948B000C948B000C948B006C
:100010000C948B000C948B000C948B000C948B0034
:100020000C948B000C948B000C948B000C948B0024
:100030000C948B000C948B000C948B000C948B0014
:100040000C9425040C948B000C94F3030C94CD03B6
:100050000C948B000C948B000C948B000C948B00F4
:100060000C948B000C948B000000000023002600F1
:10007000290000000008000201000003040700003E
:1000800000000000000000000000250028002B00F8
:1000900000000000240027002A00040404040404D3
:1000A0000404020202020202030303030303010227
:1000B00004081020408001020408102001020408F6
:1000C00010206F04EC0711241FBECFEFD8E0DEBF75
:1000D000CDBF11E0A0E0B1E0E2EEF4E102C0059096
:1000E0000D92A239B107D9F722E0A2E9B1E001C02F
:1000F0001D92A338B207E1F710E0C2E6D0E004C0D9
:100100002197FE010E946C08C136D107C9F70E94F1
:10011000F0040C94640A0C9400000895AF92BF920E
:10012000CF92DF92EF92FF920F931F93CF93DF93C3
:100130006C017B018B01040F151FEB015E01AE18F2
:10014000BF08C017D10759F06991D601ED91FC9114
:100150000190F081E02DC6010995892B79F7C50141
:10016000DF91CF911F910F91FF90EF90DF90CF9093
:10017000BF90AF900895FC01538D448D252F30E042
:10018000842F90E0821B930B541710F0CF960895A4
:1001900001970895FC01918D828D981761F0A28DD1
:1001A000AE0FBF2FB11D5D968C91928D9F5F9F7397
:1001B000928F90E008958FEF9FEF0895FC01918D4D
:1001C000828D981731F0828DE80FF11D858D90E0BA
:1001D00008958FEF9FEF0895FC01918D228D892F57
:1001E00090E0805C9F4F821B91098F73992708953F
:1001F0008BE991E00E94EC0021E0892B09F420E0DA
:10020000822F089580E090E0892B29F00E94F80069
:1002100081110C9400000895FC01A48DA80FB92F42
:10022000B11DA35ABF4F2C91848D90E001968F731E
:100230009927848FA689B7892C93A089B1898C913D
:10024000837080648C93938D848D981306C002888C
:10025000F389E02D80818F7D80830895EF92FF9256
:100260000F931F93CF93DF93EC0181E0888F9B8DD9
:100270008C8D98131AC0E889F989808185FF15C093
:100280009FB7F894EE89FF896083E889F9898081B6
:100290008370806480839FBF81E090E0DF91CF9185
:1002A0001F910F91FF90EF900895F62E0B8D10E0A7
:1002B0000F5F1F4F0F731127E02E8C8D8E110CC016
:1002C0000FB607FCFACFE889F989808185FFF5CF61
:1002D000CE010E940C01F1CFEB8DEC0FFD2FF11D33
:1002E000E35AFF4FF0829FB7F8940B8FEA89FB899E
:1002F00080818062CFCFCF93DF93EC01888D8823FC
:10030000B9F0AA89BB89E889F9898C9185FD03C078
:10031000808186FD0DC00FB607FCF7CF8C9185FF5D
:10032000F2CF808185FFEDCFCE010E940C01E9CF95
:10033000DF91CF910895833081F028F4813099F0D6
:100340008230A9F008958730A9F08830C9F0843050
:10035000B1F4809180008F7D03C0809180008F7701
:1003600080938000089584B58F7784BD089584B507
:100370008F7DFBCF8091B0008F778093B000089580
:100380008091B0008F7DF9CFCF93DF93282F30E09D
:10039000F901EE58FF4F8491F901E255FF4FD491D6
:1003A000F901E656FF4FC491CC23A1F081110E94C0
:1003B0009B01EC2FF0E0EE0FFF1FE859FF4FA591D6
:1003C000B491EC91ED2381E090E009F480E0DF91BD
:1003D000CF91089580E090E0FACF1F93CF93DF9301
:1003E000282F30E0F901EE58FF4F8491F901E255D2
:1003F000FF4FD491F901E656FF4FC491CC23A9F0E9
:10040000162F81110E949B01EC2FF0E0EE0FFF1FD1
:10041000EA57FF4FA591B4918FB7F894EC91111161
:1004200008C0D095DE23DC938FBFDF91CF911F9161
:100430000895DE2BF8CF3FB7F89480919301909107
:100440009401A0919501B091960126B5A89B05C095
:100450002F3F19F00196A11DB11D3FBFBA2FA92F43
:10046000982F8827BC01CD01620F711D811D911D40
:1004700042E0660F771F881F991F4A95D1F70895AC
:10048000FC0180810E94C40121E0892B09F020E059
:10049000822F089542E050E068E171E08BE991E03D
:1004A0000C948E000F931F93CF93DF938C01EB017D
:1004B000FC01808191810097E1F06881798161156B
:1004C0007105A9F0428153812C813D814217530768
:1004D00070F00E945D0A8C819D81F8019583848370
:1004E0001D821C82DF91CF911F910F9108950E9470
:1004F0000E0988819981F801918380838A819B818B
:10050000938382838C819D81958384831982188251
:100510001B821A82E5CFCF93DF93EC0186179707F2
:1005200011F00E945202CE01DF91CF910895CF9336
:10053000DF93EC0188819981009711F00E940E09E8
:10054000198218821D821C821B821A82DF91CF9130
:100550000895FC0180819181009711F00C940E099F
:1005600008950F931F93CF93DF93EC0188819981B6
:10057000009759F02A813B812617370730F081E038
:10058000DF91CF911F910F9108958B016F5F7F4F86
:100590000E949709009759F0998388831B830A83E7
:1005A0002C813D81232B59F7FC011082E8CF80E09C
:1005B000E7CFEF92FF920F931F93CF93DF936115D5
:1005C000710541F480E0DF91CF911F910F91FF9071
:1005D000EF90089541155105B1F07B01EC010C81BC
:1005E0001D81040F151FB8010E94B102882351F329
:1005F000288139818C819D81B701820F931F0E94D0
:100600005D0A1D830C8381E0DECFCF93DF93EC0185
:10061000FB0101900020E9F73197AF01461B570B12
:100620000E94D902811103C0CE010E949702CE011F
:10063000DF91CF910895EF92FF920F931F93CF9385
:10064000DF93EC017B018A01BA010E94B1028111A2
:100650000BC0CE010E949702CE01DF91CF911F9176
:100660000F91FF90EF9008951D830C83B70188814F
:1006700099810E945D0AF0CFCF93DF93EC018881CE
:1006800099819927FC01E255FF4F249186569F4F8F
:10069000FC0184918823C9F090E0880F991FFC0128
:1006A000E057FF4F45915491FC01EA57FF4FA59148
:1006B000B4919FB7F894FA018081209582238083BA
:1006C0008C91E22FE823EC939FBF4CE050E06BE16C
:1006D00071E0CE0106960E941B0381E08C87DF91BA
:1006E000CF910895CF93DF93EC0188819981992769
:1006F000FC01E255FF4F249186569F4FFC018491E7
:10070000882399F090E0880F991FFC01E057FF4F74
:10071000A591B491FC01EA57FF4F859194918FB751
:10072000F894EC91E22BEC938FBF4EE050E068E23E
:1007300071E0CE0103960E941B0381E08A83DF9162
:10074000CF910895FB01DC0111961C921E92139625
:100750001C921E92129715961C921E921497861741
:10076000970749F0608171816115710521F044811D
:1007700055810C941B030895FC0111821082138291
:10078000128215821482FB0101900020E9F7319753
:10079000AF01461B570B0C941B031F920F920FB611
:1007A0000F9211242F933F934F935F936F937F93F7
:1007B0008F939F93AF93BF93EF93FF938BE991E058
:1007C0000E940C01FF91EF91BF91AF919F918F918A
:1007D0007F916F915F914F913F912F910F900FBE3D
:1007E0000F901F9018951F920F920FB60F92112421
:1007F0002F938F939F93EF93FF93E091AB01F09131
:10080000AC018081E091B101F091B20182FD1BC089
:1008100090818091B4018F5F8F732091B501821711
:1008200041F0E091B401F0E0E556FE4F958F8093E2
:10083000B401FF91EF919F918F912F910F900FBE77
:100840000F901F9018958081F4CF1F920F920FB6D2
:100850000F9211242F933F938F939F93AF93BF9346
:100860008091970190919801A0919901B0919A017E
:100870003091920123E0230F2D3758F50196A11DE9
:10088000B11D209392018093970190939801A093BA
:100890009901B0939A018091930190919401A09154
:1008A0009501B09196010196A11DB11D8093930110
:1008B00090939401A0939501B0939601BF91AF914D
:1008C0009F918F913F912F910F900FBE0F901F908E
:1008D000189526E8230F0296A11DB11DD2CFEF92E5
:1008E000FF920F931F93CF93DF93EBE9F1E0138215
:1008F000128288EE93E0A0E0B0E084839583A68323
:10090000B7838AE091E09183808385EC90E09587BE
:10091000848784EC90E09787868780EC90E0918BC9
:10092000808B81EC90E0938B828B82EC90E0958BB6
:10093000848B86EC90E0978B868B118E128E138EB3
:10094000148E82E7E82E82E0F82E8AE090E0F7012C
:10095000918380836AE171E088E792E00E94BC03A2
:1009600005E612E08BE090E0F801918380836AE174
:1009700071E08BE692E00E94BC03C8E5D2E08CE017
:1009800090E0998388836AE171E08EE592E00E94AD
:10099000BC0389E090E090934C0280934B026AE1A3
:1009A00071E08EE492E00E94BC038DE090E09093B1
:1009B0003F0280933E026AE171E081E492E00E948E
:1009C000BC03E8E3F2E0F182E08213830283D58383
:1009D000C483DF91CF911F910F91FF90EF90089505
:1009E000CF93DF93CDB7DEB76A970FB6F894DEBF2B
:1009F0000FBECDBF789484B5826084BD84B581601C
:100A000084BD85B5826085BD85B5816085BD8091D9
:100A10006E00816080936E00109281008091810051
:100A20008260809381008091810081608093810049
:100A3000809180008160809380008091B10084600B
:100A40008093B1008091B00081608093B00080916C
:100A50007A00846080937A0080917A00826080932B
:100A60007A0080917A00816080937A0080917A0088
:100A7000806880937A001092C100E091AB01F09100
:100A8000AC0182E08083E091A701F091A80110827F
:100A9000E091A901F091AA0180E180831092B30155
:100AA000E091AF01F091B00186E08083E091AD016B
:100AB000F091AE01808180618083E091AD01F09181
:100AC000AE01808188608083E091AD01F091AE013C
:100AD000808180688083E091AD01F091AE018081DA
:100AE0008F7D80830E941B024B015C0124EFC22E8C
:100AF000DD24D394E12CF12C0E941B0268197909A2
:100B00008A099B09683E734081059105A8F321E09D
:100B1000C21AD108E108F10888EE880E83E0981E19
:100B2000A11CB11CC114D104E104F10429F743E173
:100B300050E067E371E08BE991E00E948E000E9433
:100B40004A028BE492E00E94720382E792E00E94E4
:100B50003C0385E692E00E943C0388E592E00E9417
:100B60003C038EE392E00E9472036AE171E0CE01E1
:100B700045960E94BC036BE471E08E010F5F1F4F2E
:100B8000C8010E94BC03B801CE0145960E945202E2
:100B9000C8010E94A9026AE171E0CE010F960E948D
:100BA000BC0365E571E0C8010E94BC0340914502A9
:100BB000509146026091410270914202C8010E9428
:100BC000D902811103C0C8010E949702B801CE0169
:100BD00009960E94A203BE01675F7F4FCE010F9668
:100BE0000E948B02CE0109960E94A902C8010E94B0
:100BF000A902BE01615F7F4FC8010E94A20369E1A3
:100C000071E0C8010E940503BC01CE0109960E9453
:100C1000A203BE01675F7F4FCE010F960E948B0239
:100C2000CE0109960E94A902C8010E94A902BE0134
:100C3000615F7F4FC8010E94A2036FE571E0C801A8
:100C40000E940503BC01CE0109960E94A203BE01C9
:100C5000675F7F4FCE010F960E948B02CE010996EF
:100C60000E94A902C8010E94A902E0903E02F090F1
:100C70003F02BE01615F7F4FCE0109960E94A20331
:100C80004AE0B801C7010E940008F8010190002065
:100C9000E9F73197AF01401B510BB801CE0109961E
:100CA0000E94D902811104C0CE0109960E949702C8
:100CB000BE01675F7F4FC8010E94A203B801CE0149
:100CC0000F960E948B02C8010E94A902CE010996CC
:100CD0000E94A902BE01615F7F4FC8010E94A2036A
:100CE00069E171E0C8010E940503BC01CE010996CB
:100CF0000E94A203BE01675F7F4FCE010F960E9444
:100D00008B02CE0109960E94A902C8010E94A90285
:100D1000BE01615F7F4FC8010E94A20366E671E0D9
:100D2000C8010E940503BC01CE0109960E94A203DE
:100D3000BE01675F7F4FCE010F960E948B02CE01EE
:100D400009960E94A902C8010E94A902809140024E
:100D5000BE01615F7F4F882309F432C1C8010E9440
:100D6000A20360E771E0C8010E940503BC01CE0147
:100D700009960E94A203BE01675F7F4FCE010F96C6
:100D80000E948B02CE0109960E94A902C8010E940E
:100D9000A902BE01615F7F4FC8010E94A20369E101
:100DA00071E0C8010E940503BC01CE0109960E94B2
:100DB000A203BE01675F7F4FCE010F960E948B0298
:100DC000CE0109960E94A902C8010E94A902BE0193
:100DD000615F7F4FC8010E94A20360E871E0C80113
:100DE0000E940503BC01CE0109960E94A203BE0128
:100DF000675F7F4FCE010F960E948B02CE0109964E
:100E00000E94A902C8010E94A90280913E020E948C
:100E1000C401BE01615F7F4F892B09F4D7C0C801AF
:100E20000E94A20369E871E0C8010E940503BC01A9
:100E3000CE0109960E94A203BE01675F7F4FCE01DB
:100E40000F960E948B02CE0109960E94A902C8014A
:100E50000E94A902BE016B5E7F4FCE0109960E94DF
:100E6000A2034B895C896F857889CE0109960E941F
:100E7000D902811104C0CE0109960E949702BE01D9
:100E8000675F7F4FC8010E94A203B801CE0145965B
:100E90000E945202C8010E94A902CE0109960E9436
:100EA000A902CE010F960E94A902498D5A8D6D8923
:100EB0007E898BE991E00E948E000E944A02CE0159
:100EC00045960E94A902CC24C39480E4D82E90E0D9
:100ED000E92E90E0F92E2FB7F89480919701909128
:100EE0009801A0919901B0919A012FBF40914702BA
:100EF000509148026091490270914A02841B950BFF
:100F0000A60BB70B843F9140A105B105E8F02FB7C0
:100F1000F8948091970190919801A0919901B091D6
:100F20009A012FBF8093470290934802A0934902F1
:100F3000B0934A0280913E020E94C401682F6C2542
:100F400080913E020E94ED01D0927C0080917A0057
:100F5000806480937A0080917A0086FDFCCF809136
:100F6000780000917900102F082F8091380290911D
:100F700039020E94400280913A0290913B020E9405
:100F8000400280913C0290913D020E944002011576
:100F9000144054F480914B0290914D0261E0911104
:100FA00001C060E00E94ED01E114F10409F493CF67
:100FB0000E94F800882309F48ECF0E9400008BCF96
:100FC000C8010E94A20368E771E0CDCEC8010E946B
:100FD000A2036DE871E028CF81E492E00E94A902AB
:100FE0008EE492E00E94A9028EE592E00E94A9029E
:100FF0008BE692E00E94A90288E792E00C94A90295
:10100000BB274A3031F4992322F4BDE290958195B3
:101010009F4F0C940C08BB27FB015527AA27880F6C
:10102000991FAA1FA41710F0A41B83955051B9F75C
:10103000A05DAA3308F0A95DA193009779F7B111DB
:10104000B1931192CB010C942508DC01FC01672FB0
:1010500071917723E1F7329704C07C916D9370838F
:101060006291AE17BF07C8F308952F923F924F9237
:101070005F926F927F928F929F92AF92BF92CF9228
:10108000DF92EF92FF920F931F93CF93DF93CDB731
:10109000DEB7CA1BDB0B0FB6F894DEBF0FBECDBFA9
:1010A00009942A88398848885F846E847D848C847A
:1010B0009B84AA84B984C884DF80EE80FD800C8183
:1010C0001B81AA81B981CE0FD11D0FB6F894DEBF66
:1010D0000FBECDBFED010895EE0FFF1F0590F491F7
:1010E000E02D09940F931F93CF93DF9382309105E6
:1010F00010F482E090E0E0918102F091820230E011
:1011000020E0B0E0A0E0309799F42115310509F412
:101110004AC0281B390B24303105D8F58A819B81C0
:101120006115710589F1FB0193838283FE0111C072
:10113000408151810281138148175907E0F0481717
:10114000590799F4109761F012960C931297139621
:101150001C933296CF01DF91CF911F910F9108958B
:101160000093810210938202F4CF2115310551F0D2
:101170004217530738F0A901DB019A01BD01DF01D5
:10118000F801C1CFEF01F9CF9093820280938102E1
:10119000CDCFFE01E20FF31F8193919322503109CD
:1011A00039832883D7CF20917F0230918002232B6F
:1011B00041F4209102013091030130938002209389
:1011C0007F0220910001309101012115310541F488
:1011D0002DB73EB74091040150910501241B350BFA
:1011E000E0917F02F0918002E217F307A0F42E1B3A
:1011F0003F0B2817390778F0AC014E5F5F4F24177B
:10120000350748F04E0F5F1F5093800240937F02D6
:10121000819391939FCFF0E0E0E09CCFCF93DF9359
:101220000097E9F0FC01329713821282A0918102AB
:10123000B0918202ED0130E020E01097A1F420810E
:101240003181820F931F20917F02309180022817F5
:10125000390709F061C0F0938002E0937F02DF91CB
:10126000CF910895EA01CE17DF07E8F54A815B8147
:101270009E0141155105B1F7E901FB83EA834991CC
:101280005991C40FD51FEC17FD0761F4808191813E
:101290000296840F951FE901998388838281938147
:1012A0009B838A83F0E0E0E012968D919C911397E6
:1012B0000097B9F52D913C911197CD010296820FBF
:1012C000931F20917F02309180022817390739F649
:1012D000309751F51092820210928102B0938002F1
:1012E000A0937F02BCCFD383C28340815181840FFE
:1012F000951FC817D90761F44E5F5F4F88819981A8
:10130000480F591F518340838A819B819383828335
:101310002115310509F0B0CFF0938202E0938102EC
:101320009ECFFD01DC01C0CF13821282D7CFB0E087
:10133000A0E0EDE9F9E00C9437088C01009751F436
:10134000CB010E9472088C01C801CDB7DEB7E0E185
:101350000C945308FC01E60FF71F9C012250310941
:10136000E217F30708F49DC0D901CD91DC911197E4
:10137000C617D70798F0C530D10530F3CE010497D2
:101380008617970708F3C61BD70B2297C193D193F3
:101390006D937C93CF010E940E09D6CF5B01AC1AEE
:1013A000BD0A4C018C0E9D1EA0918102B09182025B
:1013B000512C412CF12CE12C109731F580917F02BA
:1013C000909180028815990509F05CC04616570671
:1013D00008F058C08091000190910101009741F4FC
:1013E0008DB79EB74091040150910501841B950B68
:1013F000E817F90708F055C0F0938002E0937F02E8
:10140000F90171836083A0CF8D919C911197129601
:101410006C90129713967C901397A815B90559F5FF
:101420006C0142E0C40ED11CCA14DB0420F1AC01F3
:101430004A195B09DA011296159780F0628273826D
:1014400051834083D9016D937C93E114F10471F0D1
:10145000D7011396FC93EE93129776CF22968C0FBA
:101460009D1FF90191838083F301EFCFF0938202F6
:10147000E093810269CF4816590608F42C017D01DA
:10148000D3019ACFCB010E9472087C01009749F0EA
:10149000AE01B8010E94540AC8010E940E098701DA
:1014A00053CF10E000E050CFFB01DC0102C00190FF
:1014B0000D9241505040D8F70895FB01DC01019096
:1014C0000D920020E1F7089510E0C2E6D0E004C0DC
:1014D000FE010E946C082196C336D107C9F7F89423
:0214E000FFCF3C
:1014E200000083028000000000002E018E00BB007D
:1014F2007B01EC00CA00DE000D0A004469676974D2
:10150200616C496E707574004469676974616C201E
:101512004F7574707574006879506F6E203A206947
:101522006E697450624C65642829006C6966654C6A
:101532006564200A00446576696365203A2000509C
:10154200696E203A2000416374696F6E203A200070
:10155200464F525741524400524556455253450058
:1015620056616C7565203A20004F6E0A004F666620
:021572000A006D
:00000001FF
