:100000000C9463000C948B000C948B000C948B006C
:100010000C948B000C948B000C948B000C948B0034
:100020000C948B000C948B000C948B000C948B0024
:100030000C948B000C948B000C948B000C948B0014
:100040000C944E040C948B000C941C040C94F6033A
:100050000C948B000C948B000C948B000C948B00F4
:100060000C948B000C948B000000000023002600F1
:10007000290000000008000201000003040700003E
:1000800000000000000000000000250028002B00F8
:1000900000000000240027002A00040404040404D3
:1000A0000404020202020202030303030303010227
:1000B00004081020408001020408102001020408F6
:1000C0001020A2046D0711241FBECFEFD8E0DEBFC1
:1000D000CDBF11E0A0E0B1E0E6E1F4E102C005909F
:1000E0000D92AC37B107D9F722E0ACE7B1E001C01F
:1000F0001D92A439B207E1F710E0C2E6D0E004C0D7
:100100002197FE010E940608C136D107C9F70E9457
:100110006D050C94FE090C940000AF92BF92CF9233
:10012000DF92EF92FF920F931F93CF93DF936C01B7
:100130007B018B01040F151FEB015E01AE18BF0898
:10014000C017D10759F06991D601ED91FC9101904A
:10015000F081E02DC6010995892B79F7C501DF9162
:10016000CF911F910F91FF90EF90DF90CF90BF90B4
:10017000AF900895FC01538D448D252F30E0842FDE
:1001800090E0821B930B541710F0CF9608950197BF
:100190000895FC01918D828D981761F0A28DAE0FAC
:1001A000BF2FB11D5D968C91928D9F5F9F73928F33
:1001B00090E008958FEF9FEF0895FC01918D828D5F
:1001C000981731F0828DE80FF11D858D90E008952C
:1001D0008FEF9FEF0895FC01918D228D892F90E084
:1001E000805C9F4F821B91098F739927089585E842
:1001F00091E00E94EB0021E0892B09F420E0822F9E
:10020000089580E090E0892B29F00E94F700811189
:100210000C9400000895FC01A48DA80FB92FB11D06
:10022000A35ABF4F2C91848D90E001968F7399272C
:10023000848FA689B7892C93A089B1898C9183700A
:1002400080648C93938D848D981306C00288F38903
:10025000E02D80818F7D80830895EF92FF920F9330
:100260001F93CF93DF93EC0181E0888F9B8D8C8D62
:1002700098131AC0E889F989808185FF15C09FB756
:10028000F894EE89FF896083E889F9898081837019
:10029000806480839FBF81E090E0DF91CF911F91C8
:1002A0000F91FF90EF900895F62E0B8D10E00F5FE9
:1002B0001F4F0F731127E02E8C8D8E110CC00FB6BF
:1002C00007FCFACFE889F989808185FFF5CFCE0157
:1002D0000E940B01F1CFEB8DEC0FFD2FF11DE35AC6
:1002E000FF4FF0829FB7F8940B8FEA89FB898081DA
:1002F0008062CFCFCF93DF93EC01888D8823B9F054
:10030000AA89BB89E889F9898C9185FD03C0808120
:1003100086FD0DC00FB607FCF7CF8C9185FFF2CF9D
:10032000808185FFEDCFCE010E940B01E9CFDF91E7
:10033000CF910895833081F028F4813099F0823094
:10034000A9F008958730A9F08830C9F08430B1F45D
:10035000809180008F7D03C0809180008F77809393
:100360008000089584B58F7784BD089584B58F7D0E
:10037000FBCF8091B0008F778093B000089580917B
:10038000B0008F7DF9CFCF93DF93282F30E0F901B4
:10039000EE58FF4F8491F901E255FF4FD491F901D6
:1003A000E656FF4FC491CC23A1F081110E949A011F
:1003B000EC2FF0E0EE0FFF1FE859FF4FA591B4912D
:1003C000EC91ED2381E090E009F480E0DF91CF91A2
:1003D000089580E090E0FACF1F93CF93DF93282F0A
:1003E00030E0F901EE58FF4F8491F901E255FF4FDB
:1003F000D491F901E656FF4FC491CC23A9F0162FF2
:1004000081110E949A01EC2FF0E0EE0FFF1FEA57D6
:10041000FF4FA591B4918FB7F894EC91111108C0DA
:10042000D095DE23DC938FBFDF91CF911F9108958C
:10043000DE2BF8CF3FB7F89480917D0190917E013B
:10044000A0917F01B091800126B5A89B05C02F3FE8
:1004500019F00196A11DB11D3FBFBA2FA92F982FEA
:100460008827BC01CD01620F711D811D911D42E0E5
:10047000660F771F881F991F4A95D1F70895FC01D1
:1004800080819485911107C00E94C30121E0892BCE
:1004900039F020E005C00E94C30121E0892BC9F397
:1004A000822F0895FC0180819181009711F00C94B6
:1004B000A8080895FC0101900020E9F73197AF01E9
:1004C000481B590BBC0185E891E00C948D008F927C
:1004D0009F92AF92BF92CF92DF92EF92FF920F93D3
:1004E0001F93CF93DF93CDB7DEB7A1970FB6F894E4
:1004F000DEBF0FBECDBF6C01990FEE08FF08F7FEFF
:1005000047C06DE285E891E00E942D018C01222711
:100510003327A9012C193D094E095F0919A2CE0103
:1005200081967C019AE0892E912CA12CB12CCA01D4
:10053000B901A50194010E94BC07605DF7016293B7
:100540007F01211531054105510589F790E080E0D3
:10055000309719F0CF010E945A02080F191F88E145
:1005600091E00E945A02800F911FA1960FB6F89455
:10057000DEBF0FBECDBFDF91CF911F910F91FF90D6
:10058000EF90DF90CF90BF90AF909F908F900895A5
:10059000A701960119A28E010F5D1F4F8AE0C82E98
:1005A000D12CE12CF12CCA01B901A70196010E94BE
:1005B000BC07605DF80162938F012115310541058B
:1005C000510589F7309729F0CF010E945A028C011A
:1005D000C6CF10E000E0C3CFEF92FF920F931F93BE
:1005E000CF93DF93EC017B018A0188819981009789
:1005F00029F02A813B812417350788F4B8016F5F01
:100600007F4F0E943109009791F0998388831B8363
:100610000A832C813D81232B11F4FC0110821D8360
:100620000C83B701888199810E94F7090CC08881E9
:100630009981009711F00E94A808198218821D82E2
:100640001C821B821A82CE01DF91CF911F910F91E4
:10065000FF90EF900895CF93DF93EC014CE050E0D2
:100660006BE171E006960E94EC02888199819927DE
:10067000FC01E255FF4F249186569F4FFC01849167
:100680008823C9F090E0880F991FFC01E057FF4FC5
:1006900045915491FC01EA57FF4FA591B4919FB742
:1006A000F894FA013081822F809583238083EC9126
:1006B0002E2B2C939FBF1C86DF91CF910895CF9353
:1006C000DF93EC01888199819927FC01E255FF4F66
:1006D000249186569F4FFC018491882399F090E0E5
:1006E000880F991FFC01E057FF4FA591B491FC01C1
:1006F000EA57FF4F859194918FB7F894EC91E22BD4
:10070000EC938FBF4EE050E068E271E0CE010396BB
:100710000E94EC0281E08A83DF91CF910895CF930C
:10072000DF93EC0110928B0210928A0210928D02DC
:1007300010928C0210928F0210928E026AE171E088
:100740008AE892E00E94980482E0CA38D80759F0FB
:100750006881798161157105A1F14C815D818AE81B
:1007600092E00E94EC022FB7F89480918101909161
:100770008201A0918301B09184012FBF8093750203
:1007800090937602A0937702B093780280937902D7
:1007900090937A02A0937B02B0937C0280937D02B7
:1007A00090937E02A0937F02B09380028093810297
:1007B00090938202A0938302B0938402DF91CF9141
:1007C000089580918A0290918B02009711F00E9407
:1007D000A80810928B0210928A0210928F02109237
:1007E0008E0210928D0210928C02BDCF1F920F923A
:1007F0000FB60F9211242F933F934F935F936F93F4
:100800007F938F939F93AF93BF93EF93FF9385E86D
:1008100091E00E940B01FF91EF91BF91AF919F91E9
:100820008F917F916F915F914F913F912F910F9099
:100830000FBE0F901F9018951F920F920FB60F9238
:1008400011242F938F939F93EF93FF93E091950142
:10085000F09196018081E0919B01F0919C0182FDD5
:100860001BC0908180919E018F5F8F7320919F01AB
:10087000821741F0E0919E01F0E0EB57FE4F958F1B
:1008800080939E01FF91EF919F918F912F910F90F7
:100890000FBE0F901F9018958081F4CF1F920F927A
:1008A0000FB60F9211242F933F938F939F93AF9383
:1008B000BF938091810190918201A0918301B091B9
:1008C000840130917C0123E0230F2D3758F50196E8
:1008D000A11DB11D20937C01809381019093820121
:1008E000A0938301B093840180917D0190917E015A
:1008F000A0917F01B09180010196A11DB11D80934F
:100900007D0190937E01A0937F01B0938001BF9100
:10091000AF919F918F913F912F910F900FBE0F90AC
:100920001F90189526E8230F0296A11DB11DD2CF66
:10093000FB0101900020E9F73197AF01461B570BEF
:100940000C94EC02CF92DF92EF92FF920F931F93E1
:10095000CF93DF9300D000D000D0CDB7DEB7E5E86D
:10096000F1E01382128288EE93E0A0E0B0E084838D
:100970009583A683B7838AE091E09183808385EC99
:1009800090E09587848784EC90E09787868780EC59
:1009900090E0918B808B81EC90E0938B828B82EC4A
:1009A00090E0958B848B86EC90E0978B868B118EF4
:1009B000128E138E148E1A8219821C821B821E8242
:1009C0001D8267E371E0CE0101960E949804CE017A
:1009D00001960E948F03CE0101960E9452028CE57F
:1009E000C82E82E0D82E8AE090E0F60191838083C1
:1009F0001782168211861086138612866AE171E0CC
:100A000082E692E00E949804F60114869FE4E92EA3
:100A100092E0F92E8BE090E0F701918380831782BA
:100A2000168211861086138612866AE171E085E5CA
:100A300092E00E949804F701148602E412E08CE030
:100A400090E0F801918380831782168211861086C8
:100A5000138612866AE171E088E492E00E949804AD
:100A6000F8011486E5E3F2E089E090E09183808369
:100A70001482138216821582108617826AE171E051
:100A800088E392E00E949804E8E2F2E08DE090E0D2
:100A900091838083148213821682158210861782B6
:100AA0006AE171E08BE292E00E949804E2E2F2E0F7
:100AB000D182C082F382E2821583048326960FB628
:100AC000F894DEBF0FBECDBFDF91CF911F910F9184
:100AD000FF90EF90DF90CF900895789484B5826076
:100AE00084BD84B5816084BD85B5826085BD85B5D2
:100AF000816085BD80916E00816080936E00109250
:100B000081008091810082608093810080918100CA
:100B1000816080938100809180008160809380005B
:100B20008091B10084608093B1008091B0008160B9
:100B30008093B00080917A00846080937A008091E5
:100B40007A00826080937A0080917A00816080933D
:100B50007A0080917A00806880937A001092C100B8
:100B6000E0919501F091960182E08083E0919101FE
:100B7000F09192011082E0919301F09194018FEC39
:100B8000808310929D01E0919901F0919A0186E095
:100B90008083E0919701F09198018081806180834A
:100BA000E0919701F0919801808188608083E091C5
:100BB0009701F0919801808180688083E09197018E
:100BC000F091980180818F7D80830E941A024B01F1
:100BD0005C0134EFC32EDD24D394E12CF12C0E9470
:100BE0001A02681979098A099B09683E73408105D0
:100BF0009105A8F321E0C21AD108E108F10888EEB6
:100C0000880E83E0981EA11CB11CC114D104E1041C
:100C1000F10429F780E491E00E945A0288E191E012
:100C20000E945A0285E392E00E945F038CE592E005
:100C30000E942B038FE492E00E942B0382E492E057
:100C40000E942B0388E292E00E945F036624639473
:100C500088248A9483E0982E97E0C92ED12C20E036
:100C6000A22E20E0B22E772473942FB7F8948091AF
:100C7000810190918201A0918301B09184012FBFE5
:100C800040913102509132026091330270913402EE
:100C9000841B950BA60BB70B843F9140A105B105B2
:100CA000E8F02FB7F8948091810190918201A09192
:100CB0008301B09184012FBF80933102909332025F
:100CC000A0933302B0933402809128020E94C301A2
:100CD000682F6625809128020E94EC0180E48093B1
:100CE0007C0080917A00806480937A0080917A0001
:100CF00086FDFCCF8091780000917900102F082F9D
:100D000080912202909123020E943F02C82FD0E0DE
:100D100080912402909125020E943F028111229627
:100D200080912602909127020E943F028111249611
:100D3000C89DC001C99D900DD89D900D1124B6018C
:100D40000E94DE077B019091370280913502601787
:100D5000710724F0992321F061E003C09923E1F3A6
:100D600060E00E94EC012FB7F8948091810190918E
:100D70008201A0918301B09184012FBF409179023B
:100D800050917A0260917B0270917C021C012D01CE
:100D9000241A350A460A570AB201A101483E5340B7
:100DA0006105710550F070928802809379029093EA
:100DB0007A02A0937B02B0937C0240918102509111
:100DC000820260918302709184021C012D01241A19
:100DD000350A460A570AB201A10140365A4E61054A
:100DE000710550F070928702809381029093820285
:100DF000A0938302B09384024091750250917602D1
:100E000060917702709178021C012D01241A350A35
:100E1000460A570A4091690250916A0260916B023A
:100E200070916C02241635064606570650F07092F3
:100E300085028093750290937602A0937702B09317
:100E4000780240917D0250917E0260917F02709104
:100E500080021C012D01241A350A460A570A4091C6
:100E60006D0250916E0260916F02709170022416B3
:100E700035064606570650F07092860280937D0232
:100E800090937E02A0937F02B093800280918802AB
:100E9000109288028823A9F084E591E00E945A020A
:100EA000CE010E9467028CE591E00E945A02C701C0
:100EB0000E9467028CE691E00E945A02C8010E94DB
:100EC0006702A114B10409F4D0CE0E94F700882370
:100ED00009F4CBCE0E940000C8CE8BE292E00E94C3
:100EE000520288E392E00E94520288E492E00E945B
:100EF000520285E592E00E94520282E692E00E9450
:100F000052028AE892E00C9452022F923F924F9242
:100F10005F926F927F928F929F92AF92BF92CF9289
:100F2000DF92EF92FF920F931F93CF93DF93CDB792
:100F3000DEB7CA1BDB0B0FB6F894DEBF0FBECDBF0A
:100F400009942A88398848885F846E847D848C84DB
:100F50009B84AA84B984C884DF80EE80FD800C81E4
:100F60001B81AA81B981CE0FD11D0FB6F894DEBFC7
:100F70000FBECDBFED010895A1E21A2EAA1BBB1B27
:100F8000FD010DC0AA1FBB1FEE1FFF1FA217B30755
:100F9000E407F50720F0A21BB30BE40BF50B661F6B
:100FA000771F881F991F1A9469F76095709580952F
:100FB00090959B01AC01BD01CF01089597FB072ED1
:100FC00016F4009407D077FD09D00E94F20707FCC1
:100FD00005D03EF4909581959F4F08957095619549
:100FE0007F4F0895AA1BBB1B51E107C0AA1FBB1F5F
:100FF000A617B70710F0A61BB70B881F991F5A95A5
:10100000A9F780959095BC01CD010895EE0FFF1FC3
:101010000590F491E02D09940F931F93CF93DF93E4
:101020008230910510F482E090E0E0919202F0911C
:10103000930230E020E0B0E0A0E0309799F4211571
:10104000310509F44AC0281B390B24303105D8F585
:101050008A819B816115710589F1FB0193838283EC
:10106000FE0111C040815181028113814817590747
:10107000E0F04817590799F4109761F012960C9315
:10108000129713961C933296CF01DF91CF911F9147
:101090000F9108950093920210939302F4CF2115BB
:1010A000310551F04217530738F0A901DB019A01CD
:1010B000BD01DF01F801C1CFEF01F9CF9093930299
:1010C00080939202CDCFFE01E20FF31F81939193A3
:1010D0002250310939832883D7CF20919002309153
:1010E0009102232B41F420910201309103013093AE
:1010F000910220939002209100013091010121156D
:10110000310541F42DB73EB74091040150910501DE
:10111000241B350BE0919002F0919102E217F30746
:10112000A0F42E1B3F0B2817390778F0AC014E5F57
:101130005F4F2417350748F04E0F5F1F5093910201
:1011400040939002819391939FCFF0E0E0E09CCF99
:10115000CF93DF930097E9F0FC013297138212825C
:10116000A0919202B0919302ED0130E020E010973F
:10117000A1F420813181820F931F20919002309140
:1011800091022817390709F061C0F0939102E093AA
:101190009002DF91CF910895EA01CE17DF07E8F5BD
:1011A0004A815B819E0141155105B1F7E901FB833D
:1011B000EA8349915991C40FD51FEC17FD0761F4DB
:1011C000808191810296840F951FE901998388831C
:1011D000828193819B838A83F0E0E0E012968D9177
:1011E0009C9113970097B9F52D913C911197CD01E2
:1011F0000296820F931F209190023091910228173E
:10120000390739F6309751F51092930210929202F5
:10121000B0939102A0939002BCCFD383C28340814C
:101220005181840F951FC817D90761F44E5F5F4F36
:1012300088819981480F591F518340838A819B81FE
:10124000938382832115310509F0B0CFF093930287
:10125000E09392029ECFFD01DC01C0CF1382128287
:10126000D7CFB0E0A0E0E7E3F9E00C9487078C016A
:10127000009751F4CB010E940C088C01C801CDB736
:10128000DEB7E0E10C94A307FC01E60FF71F9C0119
:1012900022503109E217F30708F49DC0D901CD911E
:1012A000DC911197C617D70798F0C530D10530F3F8
:1012B000CE0104978617970708F3C61BD70B229712
:1012C000C193D1936D937C93CF010E94A808D6CF90
:1012D0005B01AC1ABD0A4C018C0E9D1EA0919202BE
:1012E000B0919302512C412CF12CE12C109731F547
:1012F00080919002909191028815990509F05CC047
:101300004616570608F058C08091000190910101DF
:10131000009741F48DB79EB74091040150910501AB
:10132000841B950BE817F90708F055C0F09391025C
:10133000E0939002F90171836083A0CF8D919C911D
:10134000119712966C90129713967C901397A8158C
:10135000B90559F56C0142E0C40ED11CCA14DB0476
:1013600020F1AC014A195B09DA011296159780F059
:101370006282738251834083D9016D937C93E1141F
:10138000F10471F0D7011396FC93EE93129776CF88
:1013900022968C0F9D1FF90191838083F301EFCF7B
:1013A000F0939302E093920269CF4816590608F42D
:1013B0002C017D01D3019ACFCB010E940C087C0146
:1013C000009749F0AE01B8010E94EE09C8010E94E1
:1013D000A808870153CF10E000E050CFFB01DC01EB
:1013E00002C001900D9241505040D8F70895FB0182
:1013F000DC0101900D920020E1F7089510E0C2E6B3
:10140000D0E004C0FE010E9406082196C336D10731
:06141000C9F7F894FFCFBC
:10141600000094028000000000002D018D00BA003B
:101426007A01EB00C900DD000D0A004469676974A2
:10143600616C496E707574004469676974616C20EB
:101446004F75747075740053657175656E636500CC
:101456006879506F6E203A20696E697450624C65E7
:10146600642829005765656B203A20006E757472F2
:101476006974696F6E536574203A20006E757472D4
:0C1486006974696F6E56616C203A20009A
:00000001FF
